{
  "contractName": "LogContract",
  "abi": [
    {
      "constant": false,
      "inputs": [
        {
          "name": "timestamp",
          "type": "bytes32"
        },
        {
          "name": "username",
          "type": "bytes32"
        },
        {
          "name": "content",
          "type": "bytes32"
        }
      ],
      "name": "addARecord",
      "outputs": [
        {
          "name": "",
          "type": "uint256"
        }
      ],
      "payable": false,
      "stateMutability": "nonpayable",
      "type": "function"
    },
    {
      "constant": true,
      "inputs": [],
      "name": "getLogCount",
      "outputs": [
        {
          "name": "",
          "type": "uint256"
        }
      ],
      "payable": false,
      "stateMutability": "view",
      "type": "function"
    },
    {
      "constant": true,
      "inputs": [
        {
          "name": "index",
          "type": "uint256"
        }
      ],
      "name": "getARecord",
      "outputs": [
        {
          "name": "",
          "type": "bytes32"
        },
        {
          "name": "",
          "type": "bytes32"
        },
        {
          "name": "",
          "type": "bytes32"
        }
      ],
      "payable": false,
      "stateMutability": "view",
      "type": "function"
    }
  ],
  "bytecode": "0x6060604052341561000f57600080fd5b61033a8061001e6000396000f300606060405260043610610057576000357c0100000000000000000000000000000000000000000000000000000000900463ffffffff16806355e010de1461005c578063618033db146100b15780639766067d146100da575b600080fd5b341561006757600080fd5b61009b6004808035600019169060200190919080356000191690602001909190803560001916906020019091905050610137565b6040518082815260200191505060405180910390f35b34156100bc57600080fd5b6100c46101ea565b6040518082815260200191505060405180910390f35b34156100e557600080fd5b6100fb60048080359060200190919050506101f6565b60405180846000191660001916815260200183600019166000191681526020018260001916600019168152602001935050505060405180910390f35b600061014161027a565b8481600001906000191690816000191681525050838160200190600019169081600019168152505082816040019060001916908160001916815250506000805480600101828161019191906102a5565b916000526020600020906003020160008390919091506000820151816000019060001916905560208201518160010190600019169055604082015181600201906000191690555050506000805490509150509392505050565b60008080549050905090565b600080600080805490508410151561020a57fe5b60008481548110151561021957fe5b90600052602060002090600302016000015460008581548110151561023a57fe5b90600052602060002090600302016001015460008681548110151561025b57fe5b9060005260206000209060030201600201549250925092509193909250565b6060604051908101604052806000801916815260200160008019168152602001600080191681525090565b8154818355818115116102d2576003028160030283600052602060002091820191016102d191906102d7565b5b505050565b61030b91905b808211156103075760008082016000905560018201600090556002820160009055506003016102dd565b5090565b905600a165627a7a723058204671a018323c0f9992dd65fd11a2f82f203ee4c17fd49bb4af3dacea517444ad0029",
  "source": "pragma solidity ^0.4.17;\n\ncontract LogContract\n{\n    struct Record\n    {\n        bytes32 timestamp_;\n        bytes32 username_;\n        bytes32 content_;\n    }\n\n    Record[] log;\n\n    function addARecord(bytes32 timestamp, bytes32 username, bytes32 content) public returns(uint)\n    {\n        Record memory rc;\n        rc.timestamp_ = timestamp;\n        rc.username_ = username;\n        rc.content_ = content;\n        log.push(rc);\n        return log.length;\n    }\n\n    function getLogCount() public view returns(uint)\n    {\n        return log.length;\n    }\n\n    function getARecord(uint index) public view returns(bytes32, bytes32, bytes32)\n    {\n        assert(index < log.length);\n        return (log[index].timestamp_, log[index].username_, log[index].content_);\n    }\n}",
  "sourcePath": "/Users/samuel/code/filesys/server/contracts/LogContract.sol",
  "compiler": {
    "name": "solc",
    "version": "0.4.18+commit.9cf6e910.Emscripten.clang"
  },
  "schemaVersion": "1.0.1",
  "updatedAt": "2018-02-01T19:57:56.724Z"
}